:020000040800F2
:10000000D8040020D51B0008811A0008831A0008B4
:10001000851A0008871A0008891A000800000000E5
:100020000000000000000000000000008B1A000823
:100030008D1A0008000000008F1A0008911A0008AD
:10004000011C0008051C0008091C00080D1C000804
:10005000111C0008151C0008191C00081D1C0008B4
:10006000211C0008251C0008291C00082D1C000864
:10007000311C0008351C0008391C00083D1C000814
:10008000411C0008451C0008491C00084D1C0008C4
:100090009F1A0008A11A0008A91A0008511C00089C
:1000A000551C0008591C00085D1C0008611C000854
:1000B000651C0008691C0008AB1A00086D1C0008CC
:1000C000711C0008751C0008791C00087D1C0008C4
:1000D000811C0008851C0008891C00088D1C000874
:1000E000911C0008951C0008991C00089D1C000824
:1000F000A11C0008A51C0008A91C0008AD1C0008D4
:10010000B11C0008B51C0008B11A0008B91C000891
:10011000BD1C0008C11C0008C51C0008C91C000843
:10012000CD1C0008D11C0008D51C0008D91C0008F3
:10013000F8B5044600262CB304F13C05287818B91C
:100140006E70204600F0F2FB00F01FFA2068026893
:1001500042F00102026000F037FC07462068416867
:10016000CA0711D400F030FCC01B0B28F6D300F0F6
:1001700014FAF2BD00F028FC801B0B283DD3F6E7F3
:10018000042028700120F2BD4168CA07F8D5A16992
:100190000129E16908BF80260129216A08BF46F0CC
:1001A00040060129616A08BF46F020060129A16ABC
:1001B00008BF46F010060129E16A026808BF46F050
:1001C0000806012908BF46F0040622F0FC02164387
:1001D0000660A168E0682268014320690143606904
:1001E00001436068401E0143D161206801684908ED
:1001F0004900016000F0E8FB064620684168CA0734
:10020000B8D44068C107BBD40021696001202870C0
:100210000020F2BD2DE9F84F054605F13C0628689F
:100220008268530106D48268130103D48268D30024
:1002300040F1BE807278012A08BF022000F0BB8026
:10024000012373703278222A04D0322A04D0622A21
:1002500004D005E0422204E0522202E0722200E0D3
:10026000122232708268530148BF002404D482688D
:1002700013014CBF0124022400F5C07022018358F1
:1002800003F0010383502B6B2F68D3F80CA0986800
:1002900007F5C07728B9B8581B684AEA4353184392
:1002A00008E057F802C05B6840EAC3004AEA000071
:1002B00040EA0C00B8508A46286BDFF8DC84017CE9
:1002C000DFF8D89401F00F010161286800F5C270D1
:1002D0008158090909018150286800F5C2718B58BD
:1002E0002F6B3869DFF8B87403438B50286B837D1C
:1002F000C17D1B0443EA0163417D007D00F05DF890
:10030000C0F88831286B837EC17E1B0443EA0163F9
:10031000417E007E00F051F8C0F88C31286800F56D
:10032000C070815841F00101815000F04DFB8346BF
:100330002868B4B9806809EA0000484518D01AF165
:10034000010FF5D0BAF1000F05D000F03DFBA0EB96
:100350000B008245ECD2032030702868CCB9802194
:100360001DE0012C806810D108EA00004045E6D16C
:100370003078422818D0522818D072280CBF62203A
:10038000012030700020707015E03840B842D6D19E
:10039000EEE7012C0CBF4FF400414FF400018160E7
:1003A00000207070032006E02220EAE73220E8E710
:1003B000042030700120BDE8F28F43EA012303439B
:1003C0002868104470472DE9FC420E46054630006F
:1003D000144605F13C070BD1387822281CBF397828
:1003E000422916D0387862281CBF3978722910D07B
:1003F000012E0BD1387832281CBF3978522908D009
:10040000387862281CBF3978722902D078780128A0
:1004100001D1022099E001217970300038780AD1A9
:10042000122804D032280FD052280FD001E04220E9
:100430000FE022200DE0122804D0222804D0422808
:1004400004D005E0522004E0622002E0722000E0C7
:100450003220387000F0B8FA81462A6830000CBFAC
:10046000D068106910F0030040F0858014F1010F8E
:10047000F3D02CB100F0A8FAA0EB09008442ECD232
:10048000032038700020787003205EE0340102F50C
:10049000D870005910F0040088602A6802F5D872FC
:1004A00003D11059400D086002E01259D2084A6089
:1004B000286800F5D872125902F00202CA60286852
:1004C0000019D0F8B40100F00F0008612868001985
:1004D000D0F8B4010E62C0F30720C8612868001983
:1004E000D0F8B801087528680019D0F8B801000ADA
:1004F00048752A681019D0F8B801000C88752A6868
:100500001019D0F8B801000EC87500F039F8087657
:1005100028680019D0F8BC01000A487600F030F8CD
:10052000000C887600F02CF8000EC876286876B9A2
:100530002021C1603878422813D0622813D0722855
:1005400013D00120387000207870BDE8F682202199
:1005500001613878522804D0622808D0722808D067
:10056000EFE71220EEE73220ECE75220EAE7222004
:10057000E8E74220E6E730000CBF696BA96B85E72E
:100580002A681019D0F8BC01704702202870206832
:10059000016821F0020101607047032028700020EB
:1005A000687003207047F8B5044600202268D568BB
:1005B000002100265369ED0605D51B0703D510233E
:1005C0004FF40076D360226815695369ED0605D5AE
:1005D0005B0603D5102346F48066136104F13C05E5
:1005E00022685369DF0748D597686C4B1F409F42CC
:1005F0009768694B08BF01201F409F429768684B6E
:1006000008BF01211F409F420CBF01230023084364
:10061000184332D09068916893684008490A00F006
:10062000010001F00101084303F0010318431DD04C
:1006300050694008400050612978122904D120688F
:10064000416921F40F4141612878422808D052289D
:1006500004D072280CBF6220012002E0322000E0AA
:1006600022202870204600F0B5F901E046F400662B
:1006700021684C488A6802438A602068C1684069E2
:1006800011F0030F05D0800703D50021204600F0AC
:1006900090F820680169406911F0030F05D0C00689
:1006A00003D50121204600F084F8686806436E6097
:1006B0002068836941694269DB0707D5C90505D50B
:1006C000110403D5696841F00101696083694169DA
:1006D00042699B0707D5890505D5110403D56968CB
:1006E00041F0020169608369416942695B0707D58E
:1006F000490505D5110403D5696841F00401696015
:10070000816901F070014B1E416942699B41DB0F19
:100710002FD109052DD511042BD5816901F0700168
:1007200010290AD020290CD030290ED0402910D011
:10073000502912D0602914D017E0696841F00801EF
:1007400012E0696841F010010EE0696841F0200193
:100750000AE0696841F0400106E0696841F0800103
:1007600002E0696841F480716960816921F070017B
:100770008161686870B1226804215160012028708D
:10078000216809484A6902404A612046BDE8F240B2
:1007900000F021B9F1BD00000001000801000004D3
:1007A0000000011009050100A470FFFF90F83C0053
:1007B000704738B50A0002680CBF436B836B0C01AD
:1007C00002F5D8752A5912F004029A60056805F5F9
:1007D000D87503D12A59520D1A6002E02D59ED083F
:1007E0005D60026802F5D8752D5905F00205DD60DF
:1007F00002682244D2F8B421196202F00F021A6191
:1008000002682244D2F8B421C2F30722DA610268F6
:100810002244D2F8B8211A7502682244D2F8B821CD
:10082000120A5A7505682A19D2F8B821120C9A755D
:1008300005682A19D2F8B821120EDA7500F04EF8C0
:100840001A7602682244D2F8BC21120A5A7600F0C5
:1008500045F8120C9A7600F041F8120EDA760B0089
:10086000026806D12023D3600268536923F00A038B
:1008700005E0202414610268536923F0500353619A
:1008800090F83C20222A18BF322A04D1026853690A
:1008900023F40F435361002990F83C100AD14229F8
:1008A0000FD0622902D0722902D010E032210FE06D
:1008B00052210DE0522904D0622904D0722904D0BB
:1008C00005E0122104E0222102E0422100E00121A2
:1008D00080F83C1000F080F8002032BD05682A192D
:1008E000D2F8BC217047000080B525482549016039
:1008F0002D21416000218160C1604FF440310161D0
:100900004FF400114161002181610121C161002189
:10091000016241628162C162FFF70AFC28B1BDE851
:10092000044045211AA000F0F8B801BD006815493F
:10093000884200D0704718B51348144C85B0016840
:1009400041F0007101604FF40061006800F0007038
:1009500000900022009801910292039201A9204682
:1009600000F0DCF84FF48050019002210320029146
:10097000049001A9204600F0D1F806B010BD000097
:1009800010000020006400401C10024000080140DC
:10099000453A5C55736572735C626572747A5C4447
:1009A0006F63756D656E74735C4769744875625CDE
:1009B000536D617274426F7850726F5C5372635CF6
:1009C00063616E2E6300000001484068704700BFFD
:1009D00000000020704770477047000070B500F0BD
:1009E00091F900F061F800F09FF9FFF77DFF00F04A
:1009F0005BFA00F07BFA00220021142000F00EFBCD
:100A0000142000F028FB00220021152000F006FB36
:100A1000152000F020FB00220021162000F0FEFA35
:100A2000162000F018FB002200211E2000F0F6FA2C
:100A30001E2000F010FB00220021322000F0EEFA10
:100A4000322000F008FB164C164E40F223151CE035
:100A50003046FFF7ABFE01281ED10A2200213046A6
:100A6000FFF7B1FCC8B93046FFF7A0FE012815D149
:100A7000706B0168A94204D14FF40071204600F068
:100A80001EF94FF47A7000F021FB14213046FFF775
:100A9000C1FB0028DCD0FEE7FEE7FEE7FEE7000032
:100AA000000C01401000002000B500218FB0012093
:100AB0000791059002210C914FF48030069001229D
:100AC0000D904FF4E01109920E9105A800F012FB71
:100AD00000B1FEE70F2102200091019000214FF4A8
:100AE00080600291039004916846022100F090FC1E
:100AF00000B1FEE700F03AFD4FF47A71B0FBF1F07F
:100B000000F0B3FA042000F0C4FA002200214FF0F4
:100B1000FF3000F083FA0FB000BDFEE72DE9F84F7B
:100B200083460F46002080466749684A684B4FF06D
:100B30000F094FF0010A3C680AFA08F606EA040EAB
:100B4000B64540F0AE807C683CB3012C1AD0022C34
:100B50001DD0032C2ED0112C16D0122C1AD05D4D86
:100B6000AC421CBF5C4DAC4217D05C4DAC421CBFCC
:100B70005B4DAC4211D05B4DAC421CBF5A4DAC42F8
:100B80000BD018E0F86816E0F868001D13E0F8686C
:100B9000083010E0F8680C300DE0B86808B904209F
:100BA00009E0012819BF0820CBF814600820CBF811
:100BB000106000E00020BEF5807F03D2DC464FEAE3
:100BC000880404E0A8F108040BF1040CA400DCF88C
:100BD000005009FA04F6B54300FA04F42C43CCF8AB
:100BE00000407C68E4005CD51C6844F001041C6093
:100BF0004FEA980C1D6805F001050095009C52F81D
:100C00002C604FEA880404F00C0409FA04F526EA83
:100C10000505364EB34508BF002618D0344EB345FF
:100C200008BF012613D0334EB34508BF02260ED0AD
:100C3000314EB34508BF032609D0304EB34508BF37
:100C4000042604D02E4EB3450CBF0526062606FA10
:100C500004F42C4342F82C406FEA0E067C68E5034E
:100C600004D50D684EEA05050D6002E00C683440BD
:100C70000C607C68A5034C684CBF4EEA0404344009
:100C80004C607C68E5028C684CBF4EEA040434403A
:100C90008C607C68A502CC684CBF4EEA04043440EA
:100CA000CC6008F10108B8F10F0F7FF644AFBDE842
:100CB000F18F81B002B90904016101B07047C268C7
:100CC0005140C1607047000000040140080001402D
:100CD0001810024000001110000012100000211036
:100CE0000000221000003110000032100008014006
:100CF000000C0140001001400014014000180140A8
:100D0000001C014080B50748016841F010010160F6
:100D1000032000F076F9002000F04AFC00F068FCA7
:100D2000002002BD002002402DE9F04F4D484E4CFE
:100D3000DFF83881DFF838B1DFF83891DFF838A113
:100D400085B0016841F04001016045F240570268FA
:100D500002F04002049244F265050499016841F0F2
:100D60001001016045F20276026802F0100204925E
:100D70000499016841F004010160026802F0040274
:100D800004920499016841F008010160026802F0D0
:100D90000802049200220499016841F020010160D8
:100DA0003946006800F02000049004982046FFF7C0
:100DB00080FF002229464046FFF77BFF0022AA2140
:100DC0005846FFF776FF002231464846FFF771FF8D
:100DD00000224FF4AA415046FFF76BFF4AF6BE20AF
:100DE00000F05CF800F056F8009700F047F800F0CB
:100DF00051F84BF69A7000F051F8404600F04BF86D
:100E000000F03CF8009569464046FFF787FEAA20AF
:100E100000F039F85846FFF781FE48F2547000F0B0
:100E20003DF8584600F037F84AF6F90000F036F879
:100E3000484600F030F8009600F020F8484600F0F0
:100E40002AF84FF4AA4000F01EF85046FFF766FE5D
:100E50004AF6FF2000F022F8504600F01CF805B0DA
:100E6000BDE8F08F1810024000180140001001404A
:100E700000080140000C0140001401400120022143
:100E8000019003917047009001210220019103908D
:100E90006946704720466946FFF740BE0021009032
:100EA00001910291704700003B4838B53B4C00BFB0
:100EB0003EA5206086B0472060600020A06040F220
:100EC000E73000F03FF810B1402100F038F800F0B2
:100ED0002FF810B1462100F032F800F03AF810B1C6
:100EE0004D2100F02CF807B030BD00002C4838B57B
:100EF0002C4C00BF2DA5206086B040F60F606060CE
:100F00000020A06040F2CF7000F01CF810B15F210B
:100F100000F015F800F00CF810B1652100F00FF8A2
:100F200000F017F810B16C2100F009F807B030BDDF
:100F30004FF48050029002A9204600F060BC284681
:100F4000FFF7EBBDE06000202061A061204600F0CB
:100F500093BB0020009001906946204600F036BD0A
:100F600081B000680C4A1049904207D1086840F0EF
:100F700004000860096801F0040109E0084A904291
:100F800008D1086840F008000860096801F008010D
:100F90000091009801B07047000800405400002004
:100FA000000C0040940000201C100240453A5C55A3
:100FB000736572735C626572747A5C446F63756D9D
:100FC000656E74735C4769744875625C536D6172D9
:100FD00074426F7850726F5C5372635C74696D2EEB
:100FE000630000000901020081B006D52F4A00F01D
:100FF0000F00104400F8041C01E02D4B195401B0FF
:1010000070472C4A13684FF6FF0100020B4000F4B2
:10101000E0601843284908431060704738B5254BF5
:101020001C68C4F30223C3F10704052C28BF042461
:101030001D1D072D34BF0023DB1E012505FA04F416
:10104000641E2140994005FA03F35B1E1A401143C8
:10105000BDE83440C6E7012200F01F01174BFFE74F
:101060008A40400943F82020704710B5401EB0F177
:10107000807F01D3012010BD114C60600F214FF023
:10108000FF30FFF7AFFF0022A260072020600020A2
:1010900010BD04280A4904D1086840F00400086023
:1010A00070470A6822F004020A60704718ED00E0F9
:1010B00000E400E00CED00E00000FA0500E100E0D3
:1010C00010E000E000F000B87047000038B50446BA
:1010D000FFF77AFC14F1010F054602D004490878A5
:1010E0000419FFF771FC401BA042FAD331BD00BFC9
:1010F000000000202DE9F8430646DFF878543078E8
:10110000C1074AD5686800F00C00042807D0686859
:1011100000F00C0008280BD16868C10308D52968C5
:1011200088033AD57068002840F0C080012069E14A
:101130007068B0F5803F0FD038B9296821F480314C
:101140002960286820F4802009E0B0F5A02F2968E4
:1011500007D141F480212960286840F4803028605C
:1011600006E021F4803129602A6822F480222A6076
:10117000706868B1FFF728FC04462968880300F10D
:101180009580FFF721FC001B6528F6D3032039E189
:10119000FFF71AFC04462868810340F18780FFF7B7
:1011A00013FC001B6528F6D3F0E7FFF70DFC001BCE
:1011B000022840F2AA80E9E7306970B10121396064
:1011C000FFF702FC04462868810700F1DC80FFF786
:1011D000FBFB001B0228F6D9D8E73860FFF7F4FBC9
:1011E00004462868810765D5FFF7EEFB001B02283F
:1011F000F7D9CBE70860FFF7E7FB0446686A810789
:1012000077D5FFF7E1FB001B0228F7D9BEE708B945
:10121000286A09E00528286A06D140F004002862FF
:10122000286A40F0010005E0400840002862286A72
:1012300020F00400286241F28938F06868B1FFF7B5
:10124000C3FB8146286A810700F1AA80FFF7BCFB37
:10125000A0EB09004045F5D398E7FFF7B5FB8146C1
:10126000286A810740F19C80FFF7AEFBA0EB0900E4
:101270004045F5D38AE7FFF7A7FB001B022840F2A1
:10128000A28083E7FFF7A0FB001B022840F2B58095
:101290007CE700F0B9F804462868810140F1B1808C
:1012A000FFF792FB001B0228F6D96FE73078DFF8D2
:1012B000D07281071BD5686810F00C0F09D06868E0
:1012C00000F00C0008287FF477AF6868C1033FF591
:1012D00073AF2968880703D5306901287FF426AFEA
:1012E0002968706921F0F80141EAC001296031786C
:1012F00008071DD5B069DFF88C1200283FF47AAFDB
:1013000001220A60FFF760FB0446686A81077FF5E7
:101310004CAFDFF864120868C0084FF47A72B0FB73
:10132000F2F2009200BF0098411E00280091F9D10E
:101330003078410739D5E8690024C10009D4E8694B
:1013400040F08050E8610124E86900F0805000908E
:101350000098DFF83482D8F80010C8051BD4D8F8FC
:10136000000040F48070C8F80000FFF72DFB8146B4
:10137000D8F80010C8050ED4FFF726FBA0EB090033
:101380006528F5D302E72868716920F0F80040EA83
:10139000C1002860ABE7F06801287FF438AF3FE771
:1013A0001CB1E86920F08050E861F06948B36968D1
:1013B00001F00C0108293FF4B9AE02287FF469AFAF
:1013C00000F022F80446286881013FF554AF306AE6
:1013D000B0F5803F05D16968B06821F40031014360
:1013E00069606968306A21F474110143706A0143CD
:1013F0006960012000F009F80446286881017FF542
:1014000041AF0020BDE8F28300203866FFF7DCBA68
:101410002DE9F8435D4F05463868894600F007001E
:10142000484502D200F07AF86CD12978514C8807EF
:1014300005D56168A86821F0F00101436160287852
:10144000C10757D56868012802D121688A0303E0E3
:10145000022803D121688A0103D453E0226891074E
:1014600050D56168890840EA8100606041F289389E
:10147000FFF7AAFA0646686801280BD1606800F0F9
:101480000C00042836D0FFF79FFA801B4045F5D3A7
:1014900003202DE0022837D1606800F00C000828F6
:1014A00028D0FFF791FA801B4045F5D3F0E7287864
:1014B000410705D56168E86821F4E0610143616096
:1014C0002878010706D56068296920F4605040EA51
:1014D000C100606000F02CF862682D49C2F303126D
:1014E000895C254AC8401060002000F061F80020A7
:1014F000BDE8F283386800F007008145D7D200F0DC
:101500000DF8D4D00120F3E7606810F00C0FF1D093
:10151000FFF75AFA801B4045F6D3B9E73968C90886
:1015200049EAC1013960386800F007004845704752
:10153000184912480A6802F00C03082B00D07047C3
:1015400010B500BF15A4C2F38343D203E35C09D5F1
:10155000096800BF15A2C1F340415843515CB0FB7C
:10156000F1F010BD18460C49484310BD0248006810
:1015700070470000001002400C00002000127A00AA
:1015800000004242800442420070004000200240BD
:10159000701A00080410024000093D00020304050F
:1015A000060708090A0B0C0D0E0F101001020000AF
:1015B00038B50D4D0D4A297804464FF47A70B0FBCA
:1015C000F1F11068B0FBF1F0FFF74FFD50B9102CAE
:1015D00008D2002221464FF0FF30FFF71FFDAC601C
:1015E000002032BD012032BD000000200C00002090
:1015F00080B51F48016841F001010160006800F0FA
:101600000100009000980320FFF7FBFC002200215E
:101610006FF00B00FFF702FD002200216FF00A00BF
:10162000FFF7FCFC002200216FF00900FFF7F6FC39
:10163000002200216FF00400FFF7F0FC00220021DF
:101640006FF00300FFF7EAFC002200216FF00100B9
:10165000FFF7E4FC002200214FF0FF30FFF7DEFC33
:101660000448016821F0E06141F00071016001BDB2
:10167000181002400400014038B5040001D10120D7
:1016800032BD00F014F818B900F00DF8FFF768FC4F
:10169000FFE702206870211D206800F01BF901207F
:1016A0006870002032BD002129702046704704F187
:1016B0003C056878704710B50446206801698A07C0
:1016C00015D5C1688A0712D56FF0020202610121A7
:1016D0002177806910F0030F204602D000F09BF9BB
:1016E00003E000F099F900F087F8002020772068E7
:1016F00001694A0715D5C1684A0712D56FF004027F
:10170000026102212177806910F4407F204602D0D7
:1017100000F081F903E000F07FF900F06DF800209F
:101720002077206801690A0715D5C1680A0712D514
:101730006FF00802026104212177C06910F0030FE5
:10174000204602D000F067F903E000F065F900F0F0
:1017500053F80020207720680169CA0615D5C168B2
:10176000CA0612D56FF01002026108212177C06904
:1017700010F4407F204602D000F04DF903E000F065
:101780004BF900F039F80020207720680169CA077A
:1017900008D5C168CA0705D56FF00102026120466D
:1017A00000F03BF9206801690A0608D5C1680A06FD
:1017B00005D56FF080020261204600F02FF9206805
:1017C00001694A0608D5C1684A0605D56FF040028E
:1017D0000261204600F023F9206801698A060AD5D3
:1017E000C1688A0607D56FF0200202612046BDE875
:1017F000104000F015B910BD204600F012B938B500
:1018000000F05DF801D1022032BD012222700220D9
:1018100060702A68DFF830019368034093600868BD
:10182000002837D0102837D0202837D0302837D09C
:1018300040282BD050281ED0602820D070280BD0F4
:10184000B0F5805F03D0B0F5005F0CD02CE02868C5
:101850008168C908C9000CE000F028F82868816890
:1018600041F0770105E000F021F82868816841F433
:101870008041816018E000F01EF8502111E0CA6834
:101880004968286800F07BF860210AE000F013F84E
:10189000402106E0002104E0102102E0202100E0C8
:1018A0003021286800F07DF80FE00000CB684A681E
:1018B000896828687DE0CA684968286850E005465C
:1018C00005F13C0420780128704701206070002059
:1018D000207032BDF0B5DFF874C01D4F03681D4C99
:1018E0001D4D1E4E604518BFB84208D0B0F1804F64
:1018F00018BFB04203D0A84218BFA0420DD14A6819
:1019000023F070031343604518BFB84207D0B0F10D
:10191000804F1CBFB042A84201D0A04203D1CA6888
:1019200023F4407313434A6923F080031343036095
:1019300060458A68C2620A68826212BFB842096959
:10194000016301214161F0BD8800FFFF002C0140CF
:1019500000340140000C004000080040000400403A
:1019600010B5036A046A64086400046223F00A0381
:10197000846924F0F00444EA0214846123E010B581
:10198000036A23F0100303628369046A23F470433B
:1019900043EA023324F0A004836144EA01140462A0
:1019A00010BD826822F07002114341F0070181608E
:1019B000704710B5846824F47F442143114341EA01
:1019C0000321816010BD1943016210BD30B500F1E3
:1019D0003C031A78012A01D1022030BD01241C7079
:1019E00002225A700268546824F07004546004683B
:1019F00065680A68154365600268946824F080048D
:101A000094600268946848680443946001205870A8
:101A10000020187030BD704770477047704770479E
:101A2000704770470E49086840F0010008604A6836
:101A30000C4802404A600B680B4803400B60086882
:101A400020F4802008604FF41F004A6822F4FE0250
:101A50004A6088604FF000600449086070470000E9
:101A6000001002400000FFF8FFFFF6FE08ED00E066
:101A7000000000000000000001020304060708093E
:101A80007047FEE7FEE7FEE7FEE7704770477047E6
:101A900080B500F017F8BDE80140FFF713BB00E088
:101AA00000BF0548FEF77FBDFBE70448FFF703BE14
:101AB0000348FFF700BE0000100000205400002083
:101AC0009400002002494A68087882184A607047EA
:101AD0000000002019E050F8042BD30744BFA9F1FF
:101AE00001039A18091F0023042942F8043BF9D284
:101AF0005FEA817C134604D54FF0000CA2F800C0C9
:101B00009B1CC90744BF0021197050F8041B002911
:101B1000E1D1704710B450F8041B79B102684368F2
:101B200002440830DC0744BFA9F10104E31852F86D
:101B3000044B43F8044B091FF9D1ECE710BC704784
:101B400010B5074979441831064C7C44163404E03A
:101B50000A68081D114488470146A142F8D110BD0A
:101B600008000000280000006DFFFFFFC400000017
:101B700010000020000000009DFFFFFF100000008B
:101B800064000000000000200000000000F00DF8DC
:101B9000002801D0FFF7D4FFAFF300800020AFF39F
:101BA0000080FEF71BFF00F002F80120704700F0F4
:101BB00001B800000746384600F002F8FBE70000D5
:101BC00080B5AFF30080024A11001820ABBEFBE7DE
:101BD000260002000148804701480047251A0008F6
:101BE000F51B0008010000000000000010000000CC
:101BF00000A24A04AFF30080AFF30080FFF7C6FFF6
:101C0000FFF7FEBFFFF7FEBFFFF7FEBFFFF7FEBF08
:101C1000FFF7FEBFFFF7FEBFFFF7FEBFFFF7FEBFF8
:101C2000FFF7FEBFFFF7FEBFFFF7FEBFFFF7FEBFE8
:101C3000FFF7FEBFFFF7FEBFFFF7FEBFFFF7FEBFD8
:101C4000FFF7FEBFFFF7FEBFFFF7FEBFFFF7FEBFC8
:101C5000FFF7FEBFFFF7FEBFFFF7FEBFFFF7FEBFB8
:101C6000FFF7FEBFFFF7FEBFFFF7FEBFFFF7FEBFA8
:101C7000FFF7FEBFFFF7FEBFFFF7FEBFFFF7FEBF98
:101C8000FFF7FEBFFFF7FEBFFFF7FEBFFFF7FEBF88
:101C9000FFF7FEBFFFF7FEBFFFF7FEBFFFF7FEBF78
:101CA000FFF7FEBFFFF7FEBFFFF7FEBFFFF7FEBF68
:101CB000FFF7FEBFFFF7FEBFFFF7FEBFFFF7FEBF58
:101CC000FFF7FEBFFFF7FEBFFFF7FEBFFFF7FEBF48
:0C1CD000FFF7FEBFFFF7FEBFFFF7FEBFEF
:0400000508001BF5DF
:00000001FF
