:020000040800F2
:1000000098050020F5220008A1210008A32100087E
:10001000A5210008A7210008A92100080000000070
:10002000000000000000000000000000AB210008FC
:10003000AD21000800000000AF210008B121000838
:100040002123000825230008292300082D23000868
:100050003123000835230008392300083D23000818
:100060004123000845230008492300084D230008C8
:100070005123000855230008592300085D23000878
:100080006123000865230008692300086D23000828
:10009000BF210008C1210008C92100087123000800
:1000A00075230008792300087D23000881230008B8
:1000B0008523000889230008CB2100088D23000830
:1000C0009123000895230008992300089D23000828
:1000D000A1230008A5230008A9230008AD230008D8
:1000E000B1230008B5230008B9230008BD23000888
:1000F000C1230008C5230008C9230008CD23000838
:10010000D1230008D5230008D1210008D9230008F5
:10011000DD230008E1230008E5230008E9230008A7
:10012000ED230008F1230008F5230008F923000857
:10013000F8B5044600262CB304F13C05287818B91C
:100140006E70204600F0D2FB00F0FEF920680268D5
:1001500042F00102026000F017FC07462068416887
:10016000CA0711D400F010FCC01B0B28F6D300F016
:10017000F3F9F2BD00F008FC801B0B283DD3F6E735
:10018000042028700120F2BD4168CA07F8D5A16992
:100190000129E16908BF80260129216A08BF46F0CC
:1001A00040060129616A08BF46F020060129A16ABC
:1001B00008BF46F010060129E16A026808BF46F050
:1001C0000806012908BF46F0040622F0FC02164387
:1001D0000660A168E0682268014320690143606904
:1001E00001436068401E0143D161206801684908ED
:1001F0004900016000F0C8FB064620684168CA0754
:10020000B8D44068C107BBD40021696001202870C0
:100210000020F2BDF8B54A690468012303FA02F22E
:1002200004F5007318684D6A20F47C5040EA0520FC
:1002300040F001001860D543D8692840D861C869EA
:1002400080B9DE682E4000F03DF8CF6800F040F83D
:10025000D1F800C08F684E691FFA8CFC4CEA074742
:1002600040F83670C86901280ED1DE68164300F0E8
:1002700029F80F6800F02CF8CF688E684C69BFB27F
:1002800047EA064740F83470886918B95C682C4022
:100290005C6002E0586810435860086918B95C69EE
:1002A00025405D6102E0586910435861086A0128E1
:1002B00002D1D9690A43DA61186840084000186021
:1002C0000020F2BDDE6004F51070D1F804C0704764
:1002D0004E691FFA8CFC4CEA074740F8367004F56B
:1002E000117070472DE9F84F054605F13C06286866
:1002F0008268530106D48268130103D48268D30054
:1003000040F1BE807278012A08BF022000F0BB8055
:10031000012373703278222A04D0322A04D0622A50
:1003200004D005E0422204E0522202E0722200E002
:10033000122232708268530148BF002404D48268BC
:1003400013014CBF0124022400F5C0702201835820
:1003500003F0010383502B6B2F68D3F80CA098682F
:1003600007F5C07728B9B8581B684AEA43531843C1
:1003700008E057F802C05B6840EAC3004AEA0000A0
:1003800040EA0C00B8508A46286BDFF8CC83017C29
:10039000DFF8C89301F00F010161286800F5C27011
:1003A0008158090909018150286800F5C2718B58EC
:1003B0002F6B3869DFF8A87303438B50286B837D5C
:1003C000C17D1B0443EA0163417D007D00F05DF8BF
:1003D000C0F88831286B837EC17E1B0443EA016329
:1003E000417E007E00F051F8C0F88C31286800F59D
:1003F000C070815841F00101815000F0C5FA834678
:100400002868B4B9806809EA0000484518D01AF194
:10041000010FF5D0BAF1000F05D000F0B5FAA0EB4E
:100420000B008245ECD2032030702868CCB98021C3
:100430001DE0012C806810D108EA00004045E6D19B
:100440003078422818D0522818D072280CBF622069
:10045000012030700020707015E03840B842D6D1CD
:10046000EEE7012C0CBF4FF400414FF40001816016
:1004700000207070032006E02220EAE73220E8E73F
:10048000042030700120BDE8F28F43EA01230343CA
:1004900028681044704718B50B0000F13C020BD1DE
:1004A0001378222B1CBF1478422C16D01378622BA1
:1004B0001CBF1478722C10D001290BD11378322B69
:1004C0001CBF1478522C08D01378622B1CBF1478F0
:1004D000722C02D05378012B01D1022012BD0124CD
:1004E00054700B0013780AD1122B04D0322B0FD08A
:1004F000522B0FD001E042230FE022230DE0122BFC
:1005000004D0222B04D0422B04D005E0522304E077
:10051000622302E0722300E0322313700023536051
:1005200003685C6944F40F4444F001045C610023F7
:1005300053700029006841690CBF41F00A0141F085
:1005400050014161002012BD02202870206801681E
:1005500021F00201016070470320287000206870BC
:1005600003207047F8B5044600202268D5680021B2
:1005700000265369ED0605D51B0703D510234FF45C
:100580000076D360226815695369ED0605D55B06D0
:1005900003D5102346F48066136104F13C052268FC
:1005A0005369DF0748D597686C4B1F409F42976897
:1005B000694B08BF01201F409F429768684B08BFE6
:1005C00001211F409F420CBF012300230843184311
:1005D00032D09068916893684008490A00F00100A1
:1005E00001F00101084303F0010318431DD05069D5
:1005F0004008400050612978122904D120684169DF
:1006000021F40F4141612878422808D0522804D0B3
:1006100072280CBF6220012002E0322000E022207C
:100620002870204600F0B6F901E046F40066216823
:100630004C488A6802438A602068C168406911F0AA
:10064000030F05D0800703D50021204600F091F864
:1006500020680169406911F0030F05D0C00603D579
:100660000121204600F085F8686806436E60206826
:10067000836941694269DB0707D5C90505D51104BE
:1006800003D5696841F00101696083694169426984
:100690009B0707D5890505D5110403D5696841F085
:1006A000020169608369416942695B0707D54905B1
:1006B00005D5110403D5696841F0040169608169B9
:1006C00001F070014B1E416942699B41DB0F2FD144
:1006D00009052DD511042BD5816901F07001102970
:1006E0000AD020290CD030290ED0402910D0502912
:1006F00012D0602914D017E0696841F0080112E0B7
:10070000696841F010010EE0696841F020010AE0DB
:10071000696841F0400106E0696841F0800102E04B
:10072000696841F480716960816921F070018161BB
:10073000686870B122680421516001202870216826
:1007400009484A6902404A612046BDE8F24000F08B
:1007500022B9F1BD00000000000100080100000402
:100760000000011009050100A470FFFF90F83C0093
:10077000704738B50A0002680CBF436B836B0C01ED
:1007800002F5D8752A5912F004029A60056805F539
:10079000D87503D12A59520D1A6002E02D59ED087F
:1007A0005D60026802F5D8752D5905F00205DD601F
:1007B00002682244D2F8B421196202F00F021A61D1
:1007C00002682244D2F8B421C2F30722DA61026837
:1007D0002244D2F8B8211A7502682244D2F8B8210E
:1007E000120A5A7505682A19D2F8B821120C9A759E
:1007F00005682A19D2F8B821120EDA7500F04EF801
:100800001A7602682244D2F8BC21120A5A7600F005
:1008100045F8120C9A7600F041F8120EDA760B00C9
:10082000026806D12023D3600268536923F00A03CB
:1008300005E0202414610268536923F050035361DA
:1008400090F83C20222A18BF322A04D1026853694A
:1008500023F40F435361002990F83C100AD1422938
:100860000FD0622902D0722902D010E032210FE0AD
:1008700052210DE0522904D0622904D0722904D0FB
:1008800005E0122104E0222102E0422100E00121E2
:1008900080F83C1000F018F9002032BD05682A19D4
:1008A000D2F8BC217047000080B525482549016079
:1008B0002D21416000218160C1604FF44031016110
:1008C0004FF400114161002181610121C1610021CA
:1008D000016241628162C162FFF72AFC28B1BDE872
:1008E000044045211AA000F033B901BD0068154944
:1008F000884200D0704718B51348144C85B0016881
:1009000041F0007101604FF40061006800F0007078
:1009100000900022009801910292039201A92046C2
:1009200000F018F94FF48050019002210320029149
:10093000049001A9204600F00DF906B010BD00009A
:10094000AC000020006400401C1002400008014080
:10095000453A5C55736572735C626572747A5C4487
:100960006F63756D656E74735C4769744875625C1E
:10097000536D617274426F7850726F5C5372635C36
:1009800063616E2E6300000001484068704700BF3D
:10099000000000207047704738B500F0D5F900F02E
:1009A0005AF800F0E3F9FFF77FFF00F09FFA00F03C
:1009B000BFFA00220021142000F052FB142000F0A6
:1009C0006CFB00220021152000F04AFB152000F0EE
:1009D00064FB00220021162000F042FB162000F0EC
:1009E0005CFB002200211E2000F03AFB1E2000F0DC
:1009F00054FB00220021322000F032FB322000F0B4
:100A00004CFB00F085FB00F0B8FB00214A484B4C42
:100A10004B4DFFF740FD4B4800F0F3FB4A4800F018
:100A2000F0FB287848B10021297000F093FD00F018
:100A30009FFE00F0B3FE00F0EEFF01F06EF8687864
:100A40000028EED0002169700323207802220121C2
:100A500000F0A8FBE5E700B500218FB00120079169
:100A6000059002210C914FF48030069001220D90E8
:100A70004FF4E01109920E9105A801F075F800B14C
:100A8000FEE70F2102200091019000214FF48060C9
:100A90000291039004916846022101F0F3F900B13C
:100AA000FEE701F09DFA4FF47A71B0FBF1F000F02F
:100AB000FEFA042000F00FFB002200214FF0FF306F
:100AC00000F0CEFA0FB000BD10B504461B49606BB4
:100AD0000A7803689A420DD1007D01F013F84FF4B3
:100AE00000711A4800F00DF92046BDE810400021C1
:100AF000FFF7D1BC10BD30B5124B11491C68056819
:100B00004A88AC4206D1521C93B2322B02DB01233D
:100B100000220B704A800C4B00681C688A88844253
:100B200008D1521C90B241F28933984202DB012075
:100B3000002248708A8030BDAC0000206800002090
:100B40008C010020F000002030010020000C01404A
:100B5000FEE700002DE9F84F83460F46002080464F
:100B60006A496B4A6B4B4FF00F094FF0010A3C6822
:100B70000AFA08F606EA040EB64540F0AE807C6834
:100B80003CB3012C1AD0022C1DD0032C2ED0112CDA
:100B900016D0122C1AD0604DAC421CBF5F4DAC4237
:100BA00017D05F4DAC421CBF5E4DAC4211D05E4DC4
:100BB000AC421CBF5D4DAC420BD018E0F86816E0AB
:100BC000F868001D13E0F868083010E0F8680C3091
:100BD0000DE0B86808B9042009E0012819BF082011
:100BE000CBF814600820CBF8106000E00020BEF5C0
:100BF000807F03D2DC464FEA880404E0A8F10804B1
:100C00000BF1040CA400DCF8005009FA04F6B5431B
:100C100000FA04F42C43CCF800407C68E4005CD576
:100C20001C6844F001041C604FEA980C1D6805F034
:100C300001050095009C52F82C604FEA880404F0EE
:100C40000C0409FA04F526EA0505394EB34508BF38
:100C5000002618D0374EB34508BF012613D0364EB4
:100C6000B34508BF02260ED0344EB34508BF032655
:100C700009D0334EB34508BF042604D0314EB345E6
:100C80000CBF0526062606FA04F42C4342F82C4035
:100C90006FEA0E067C68E50304D50D684EEA05058B
:100CA0000D6002E00C6834400C607C68A5034C6861
:100CB0004CBF4EEA040434404C607C68E5028C680A
:100CC0004CBF4EEA040434408C607C68A502CC68BA
:100CD0004CBF4EEA04043440CC6008F10108B8F17E
:100CE0000F0F7FF644AFBDE8F18F8068084018BF52
:100CF0000120C0B2704781B002B90904016101B09E
:100D00007047C2685140C160704700000004014054
:100D100008000140181002400000111000001210DD
:100D200000002110000022100000311000003210DD
:100D300000080140000C0140001001400014014077
:100D400000180140001C014080B50748016841F0CF
:100D500010010160032000F076F9002001F062F933
:100D600001F080F9002002BD002002402DE9F04F83
:100D70004D484E4CDFF83881DFF838B1DFF8389154
:100D8000DFF838A185B0016841F04001016045F20B
:100D90004057026802F04002049244F2650504994B
:100DA000016841F01001016045F20276026802F02C
:100DB000100204920499016841F004010160026884
:100DC00002F0040204920499016841F008010160F4
:100DD000026802F00802049200220499016841F0BE
:100DE000200101603946006800F02000049004985A
:100DF0002046FFF780FF002229464046FFF77BFF91
:100E00000022AA215846FFF776FF002231464846C5
:100E1000FFF771FF00224FF4AA415046FFF76BFF26
:100E20004AF6BE2000F05CF800F056F8009700F09B
:100E300047F800F051F84BF69A7000F051F8404630
:100E400000F04BF800F03CF8009569464046FFF78B
:100E500081FEAA2000F039F85846FFF77BFE48F2E1
:100E6000547000F03DF8584600F037F84AF6F900A3
:100E700000F036F8484600F030F8009600F020F810
:100E8000484600F02AF84FF4AA4000F01EF85046F9
:100E9000FFF760FE4AF6FF2000F022F8504600F00F
:100EA0001CF805B0BDE8F08F181002400018014092
:100EB0000010014000080140000C014000140140F6
:100EC000012002210190039170470090012102202E
:100ED000019103906946704720466946FFF73ABE84
:100EE0000021009001910291704700003B4838B505
:100EF0003B4C00BF3EA5206086B0472060600020CC
:100F0000A06040F2E73000F03FF810B1402100F05F
:100F100038F800F02FF810B1462100F032F800F058
:100F20003AF810B14D2100F02CF807B030BD0000A8
:100F30002C4838B52C4C00BF2DA5206086B040F65B
:100F40000F6060600020A06040F2CF7000F01CF8DD
:100F500010B15F2100F015F800F00CF810B1652118
:100F600000F00FF800F017F810B16C2100F009F84C
:100F700007B030BD4FF48050029002A9204600F027
:100F800001BA2846FFF7E4BDE06000202061A061BF
:100F9000204600F029B900200090019069462046C3
:100FA00001F0A4B881B000680C4A1049904207D102
:100FB000086840F004000860096801F0040109E0D5
:100FC000084A904208D1086840F0080008600968A3
:100FD00001F008010091009801B07047000800403E
:100FE000F0000020000C0040300100201C100240E6
:100FF000453A5C55736572735C626572747A5C44E1
:101000006F63756D656E74735C4769744875625C77
:10101000536D617274426F7850726F5C5372635C8F
:1010200074696D2E630000000901020081B006D5CD
:101030002F4A00F00F00104400F8041C01E02D4B73
:10104000195401B070472C4A13684FF6FF01000293
:101050000B4000F4E06018432849084310607047D3
:1010600038B5254B1C68C4F30223C3F10704052CD3
:1010700028BF04241D1D072D34BF0023DB1E0125BE
:1010800005FA04F4641E2140994005FA03F35B1E3F
:101090001A401143BDE83440C6E7012200F01F01A9
:1010A000174BFFE78A40400943F82020704710B5EE
:1010B000401EB0F1807F01D3012010BD114C606053
:1010C0000F214FF0FF30FFF7AFFF0022A260072093
:1010D0002060002010BD04280A4904D1086840F0AF
:1010E0000400086070470A6822F004020A60704732
:1010F00018ED00E000E400E00CED00E00000FA056F
:1011000000E100E010E000E000F000B870470000EF
:1011100038B5324C324D00202070211D314801631A
:1011200004F12001416328460421FFF7DEFD012878
:1011300003D1207840F00800207008212846FFF7EE
:10114000D4FD012803D1207840F004002070102144
:101150002846FFF7CAFD012803D1207840F002009D
:10116000207020212846FFF7C0FD012803D12078F8
:1011700040F001002070002032BD80B58AB0002010
:1011800005900021012006910790009101910291A4
:1011900003910491089069461248FFF73BF800203C
:1011A0000BB000BD70B50F4D2E6B306003200024D6
:1011B0003061F460B46031750A21286B42752846AD
:1011C0002A6B9375FFF78EF800B101242846FFF7CC
:1011D000CDFA012818BF0124204670BD6800002008
:1011E00000180140AC00002038B5040001D10120F6
:1011F00032BD00F01FF818B900F018F8FFF7D2FE62
:101200000AE00068C16841F00101C160026842F073
:10121000010202600020704702206870211D2068D2
:1012200000F01BF901206870002032BD00212970F8
:101230002046704704F13C056878704710B50446B5
:10124000206801698A0715D5C1688A0712D56FF031
:101250000202026101212177806910F0030F20460C
:1012600002D000F068FF03E000F066FF00F087F8AE
:1012700000202077206801694A0715D5C1684A0710
:1012800012D56FF00402026102212177806910F407
:10129000407F204602D000F04EFF03E000F04CFFFC
:1012A00000F06DF800202077206801690A0715D545
:1012B000C1680A0712D56FF0080202610421217784
:1012C000C06910F0030F204602D000F034FF03E0A5
:1012D00000F032FF00F053F8002020772068016909
:1012E000CA0615D5C168CA0612D56FF01002026190
:1012F00008212177C06910F4407F204602D000F019
:101300001AFF03E000F018FF00F039F80020207702
:1013100020680169CA0708D5C168CA0705D56FF0FA
:10132000010202612046FFF7E6FB206801690A0618
:1013300008D5C1680A0605D56FF080020261204613
:1013400000F0FBFE206801694A0608D5C1684A061C
:1013500005D56FF040020261204600F0EFFE2068E4
:1013600001698A060AD5C1688A0607D56FF020028E
:1013700002612046BDE8104000F0E1BE10BD2046ED
:1013800000F0DEBE38B500F05DF801D1022032BDBC
:1013900001222270022060702A68DFF8340193680D
:1013A000034093600868002837D0102837D02028E1
:1013B00037D0302837D040282BD050281ED0602876
:1013C00020D070280BD0B0F5805F03D0B0F5005F5F
:1013D0000CD02CE028688168C908C9000CE000F036
:1013E00028F82868816841F0770105E000F021F8CD
:1013F0002868816841F48041816018E000F01EF89F
:10140000502111E0CA684968286800F07CF8602122
:101410000AE000F013F8402106E0002104E010216A
:1014200002E0202100E03021286800F07EF80FE083
:101430000000CB684A68896828687EE0CA68496805
:10144000286851E0054605F13C04207801287047E2
:10145000012060700020207032BDF0B5DFF874C04C
:101460001D4F03681D4C1E4D1E4E604518BFB842EF
:1014700008D0B0F1804F18BFB04203D0A84218BFC7
:10148000A0420DD14A6823F070031343604518BF92
:10149000B84207D0B0F1804F1CBFB042A84201D083
:1014A000A04203D1CA6823F4407313434A6923F06E
:1014B00080031343036060458A68C2620A688262DF
:1014C00012BFB8420969016301214161F0BD00000A
:1014D0008800FFFF002C014000340140000C004058
:1014E000000800400004004010B5036A046A640864
:1014F0006400046223F00A03846924F0F00444EADF
:101500000214846123E010B5036A23F01003036220
:101510008369046A23F4704343EA023324F0A0048D
:10152000836144EA0114046210BD826822F07002F3
:10153000114341F007018160704710B5846824F4BD
:101540007F442143114341EA0321816010BD1943C7
:10155000016210BDF8B5DFF8F04500F058FADFF889
:10156000EC55297881421CBF0120687000F04FFAC9
:10157000A97881421CBF0120E87000F048FA29795F
:1015800081421CBF0120687100F041FAA9798142B3
:101590001CBF0120E87100F03AFA297A81421CBF91
:1015A0000120687200F033FAA97A81421CBF012041
:1015B000E87200F02CFA297B81421CBF012068737D
:1015C00000F025FAA97B81421CBF0120E87300F0DE
:1015D0001EFA297C81421CBF0120687400F017FAB2
:1015E000A97C81421CBF0120E87400F010FA297D1B
:1015F00081421CBF0120687500F009FAA97D814273
:101600001CBF0120E87500F002FA297E81421CBF50
:101610000120687600F0FBF9A97E81421CBF012001
:10162000E87600F0F4F9297F81421CBF0120687739
:1016300000F0EDF9A97F81421CBF0120E87700F09E
:10164000E6F995F8201005F1210681421CBF012022
:10165000307000F0DCF9717881421CBF0120B0705D
:1016600000F0D5F9F17881421CBF0120307100F003
:10167000CEF9717981421CBF0120B07100F0C7F929
:10168000F179DFF8CC7481421CBF0120307200F088
:10169000BEF9717A81421CBF0120B07200F0B7F927
:1016A0002870402100F0B4F9A870202100F0B0F9B2
:1016B0002871102100F0ACF9A871082100F0A8F9F8
:1016C00028728021DFF88C4400F0A2F9A872402132
:1016D00000F09EF92873202100F09AF9A8731021D8
:1016E00000F096F92874082100F092F9A8740421FA
:1016F00000F08EF92875022100F08AF9A875012101
:1017000000F086F928764FF48051DFF84C4400F061
:101710007FF9A8764FF4006100F07AF928774FF44A
:10172000806100F075F9A8774FF4004100F01DF8D2
:1017300085F820004FF4806100F017F870704FF4C6
:10174000007100F012F8F0704FF4807100F00DF8A5
:1017500070714FF4007100F05BF9F0714FF480711B
:1017600000F056F970720020F2BD3846FFF7BDBA9E
:10177000F8B500F067F906EB44077978012909D13B
:1017800016F8143097F82C202878E1B2FFF70AFDFC
:1017900000217970641C162CEDDBF2BD2DE9FC47AD
:1017A000DFF8B843DFF8A4734FF4007100F030F9AC
:1017B00007F12C05DFF890632978DFF89C93DFF8B8
:1017C0009083DFF890A381421CBF0120687000F075
:1017D0001EF9A97881421CBF0120E870012100F0A8
:1017E0000EF9297981421CBF01206871102100F097
:1017F0000BF9A97981421CBF0120E87100F0F4F8CF
:10180000297A81421CBF01206872102100F0EDF896
:10181000A97A81421CBF0120E872042100F0E5F89A
:10182000297B81421CBF01206873082100F0ECF87D
:10183000A97B81421CBF0120E873022100F0E4F87B
:10184000297C81421CBF0120687400F0DBF8A97C70
:1018500081421CBF0120E8744FF4005100F0D4F81D
:10186000297D81421CBF012068754FF4006100F0A2
:10187000CFF8A97D81421CBF0120E8754FF40051CB
:1018800000F0C6F8297E81421CBF012068764FF423
:10189000004100F0BDF8A97E81421CBF0120E8761E
:1018A00000F0ABF8297F81421CBF012068774FF41C
:1018B000005100F0A4F8A97F81421CBF0120E87705
:1018C0004FF4004100F09BF817F84C1F81421CBFF9
:1018D0000120787000F08CF8B97881421CBF01209B
:1018E000F8704FF4006100F085F8397981421CBF2F
:1018F000012078714FF4005100F07CF8B9798142F1
:101900001CBF0120F8714FF4004100F073F8397AE0
:1019100081421CBF01207872802100F075F8B97AED
:1019200081421CBF0120F8724FF4007100F070F882
:10193000287000F06CF8A870012100F060F82871A0
:10194000102100F061F8A87100F04EF82872102103
:1019500000F04BF8A872042100F047F82873082122
:1019600000F052F8A873022100F04EF8287400F03D
:1019700049F8A8744FF4005100F046F828754FF468
:10198000006100F045F8A8754FF4005100F040F8F0
:1019900028764FF4004100F03BF8A87600F02DF8CF
:1019A00028774FF4005100F02AF8A8774FF400414F
:1019B00000F025F8387000F01BF8B8704FF40061A3
:1019C00000F018F838714FF4005100F013F8B871B6
:1019D0004FF4004100F00EF83872802100F014F846
:1019E000B8720020BDE8F68740214046FFF77DB978
:1019F0004FF400715046FFF778B94FF4006130465C
:101A0000FFF773B94FF400414846FFF76EB98021E4
:101A10002046FFF76AB9F8B500F014F806EB440168
:101A200001F12C077A78012A08D116F814303A7897
:101A30002878E1B2FFF7B6FB00217970641C162C00
:101A4000ECDBF2BD00200024454D404E7047000005
:101A5000F8B5162807460A4601DB0120F2BD152F0E
:101A60003B4E3E4B384D3B4C3B4849D8DFE807F0F6
:101A70000B0E10121416181B1D1F2224272A2E319C
:101A800034383B3E41454FF480711DE0022125E092
:101A9000202133E0802104E0202102E0082100E041
:101AA000022130462AE0042128E0012126E04FF4FB
:101AB000804123E0402107E04FF4806104E04FF4CF
:101AC000805101E04FF48041184617E04FF48061E7
:101AD00004E04FF4805101E04FF4804128460DE0CE
:101AE0004FF4807107E04FF4806104E04FF48051BF
:101AF00001E04FF48041204600E04021FFF7FBF871
:101B00000020F2BD162801DB01207047154908446A
:101B1000012202710A700020704738B5114C2078FC
:101B200088B10025E8B2211D095C012905D1231DDA
:101B300000221A540021FFF78BFF6D1CE8B2162813
:101B4000F0DB0020207032BD000C014010000020AE
:101B5000000801400014014000100140001801403D
:101B600068000020700100202DE9F8430646DFF8E8
:101B700078543078C1074AD5686800F00C00042812
:101B800007D0686800F00C0008280BD16868C10312
:101B900008D5296888033AD57068002840F0C080CD
:101BA000012069E17068B0F5803F0FD038B929682D
:101BB00021F480312960286820F4802009E0B0F504
:101BC000A02F296807D141F480212960286840F4BA
:101BD0008030286006E021F4803129602A6822F4F0
:101BE00080222A60706868B1FEF7CEFE044629683C
:101BF000880300F19580FEF7C7FE001B6528F6D329
:101C0000032039E1FEF7C0FE04462868810340F155
:101C10008780FEF7B9FE001B6528F6D3F0E7FEF7D4
:101C2000B3FE001B022840F2AA80E9E7306970B1D8
:101C300001213960FEF7A8FE04462868810700F1FB
:101C4000DC80FEF7A1FE001B0228F6D9D8E7386039
:101C5000FEF79AFE04462868810765D5FEF794FED4
:101C6000001B0228F7D9CBE70860FEF78DFE04467B
:101C7000686A810777D5FEF787FE001B0228F7D92F
:101C8000BEE708B9286A09E00528286A06D140F0AD
:101C900004002862286A40F0010005E04008400086
:101CA0002862286A20F00400286241F28938F0682E
:101CB00068B1FEF769FE8146286A810700F1AA80B3
:101CC000FEF762FEA0EB09004045F5D398E7FEF76A
:101CD0005BFE8146286A810740F19C80FEF754FE36
:101CE000A0EB09004045F5D38AE7FEF74DFE001B47
:101CF000022840F2A28083E7FEF746FE001B02287E
:101D000040F2B5807CE700F0B9F80446286881010C
:101D100040F1B180FEF738FE001B0228F6D96FE7CC
:101D20003078DFF8D07281071BD5686810F00C0F8F
:101D300009D0686800F00C0008287FF477AF686865
:101D4000C1033FF573AF2968880703D530690128BF
:101D50007FF426AF2968706921F0F80141EAC001DB
:101D60002960317808071DD5B069DFF88C1200288A
:101D70003FF47AAF01220A60FEF706FE0446686A65
:101D800081077FF54CAFDFF864120868C0084FF494
:101D90007A72B0FBF2F2009200BF0098411E002858
:101DA0000091F9D13078410739D5E8690024C100A4
:101DB00009D4E86940F08050E8610124E86900F046
:101DC000805000900098DFF83482D8F80010C805E1
:101DD0001BD4D8F8000040F48070C8F80000FEF76B
:101DE000D3FD8146D8F80010C8050ED4FEF7CCFD0F
:101DF000A0EB09006528F5D302E72868716920F097
:101E0000F80040EAC1002860ABE7F06801287FF4E1
:101E100038AF3FE71CB1E86920F08050E861F06915
:101E200048B3696801F00C0108293FF4B9AE0228F3
:101E30007FF469AF00F022F80446286881013FF57D
:101E400054AF306AB0F5803F05D16968B06821F4BD
:101E50000031014369606968306A21F474110143FB
:101E6000706A01436960012000F009F8044628689F
:101E700081017FF541AF0020BDE8F2830020386684
:101E8000FEF782BD2DE9F8435D4F05463868894667
:101E900000F00700484502D200F07AF86CD12978AA
:101EA000514C880705D56168A86821F0F00101430D
:101EB00061602878C10757D56868012802D1216878
:101EC0008A0303E0022803D121688A0103D453E086
:101ED0002268910750D56168890840EA81006060F6
:101EE00041F28938FEF750FD0646686801280BD19B
:101EF000606800F00C00042836D0FEF745FD801B1A
:101F00004045F5D303202DE0022837D1606800F06A
:101F10000C00082828D0FEF737FD801B4045F5D37C
:101F2000F0E72878410705D56168E86821F4E061A9
:101F3000014361602878010706D56068296920F4AB
:101F4000605040EAC100606000F02CF862682D49E2
:101F5000C2F30312895C254AC8401060002000F0DB
:101F600061F80020BDE8F283386800F00700814581
:101F7000D7D200F00DF8D4D00120F3E7606810F05C
:101F80000C0FF1D0FEF700FD801B4045F6D3B9E7FA
:101F90003968C90849EAC1013960386800F00700AA
:101FA00048457047184912480A6802F00C03082B8C
:101FB00000D0704710B500BF15A4C2F38343D2030D
:101FC000E35C09D5096800BF15A2C1F3404158433D
:101FD000515CB0FBF1F010BD18460C49484310BDF0
:101FE0000248006870470000001002400C0000200A
:101FF00000127A0000004242800442420070004019
:1020000000200240902100080410024000093D0019
:1020100002030405060708090A0B0C0D0E0F101029
:102020000102000038B50D4D0D4A297804464FF4E1
:102030007A70B0FBF1F11068B0FBF1F0FFF737F800
:1020400050B9102C08D2002221464FF0FF30FFF784
:1020500007F8AC60002032BD012032BD0000002036
:102060000C00002080B51F48016841F001010160AB
:10207000006800F00100009000980320FEF7E3FFE5
:10208000002200216FF00B00FEF7EAFF0022002182
:102090006FF00A00FEF7E4FF002200216FF0090054
:1020A000FEF7DEFF002200216FF00400FEF7D8FFEC
:1020B000002200216FF00300FEF7D2FF0022002172
:1020C0006FF00100FEF7CCFF002200214FF0FF303F
:1020D000FEF7C6FF0448016821F0E06141F000719D
:1020E000016001BD181002400400014030B500F14C
:1020F0003C031A78012A01D1022030BD01241C7052
:1021000002225A700268546824F070045460046813
:1021100065680A68154365600268946824F0800465
:102120009460026894684868044394600120587081
:102130000020187030BD7047704770477047704777
:10214000704700000E49086840F0010008604A68C6
:102150000C4802404A600B680B4803400B6008685B
:1021600020F4802008604FF41F004A6822F4FE0229
:102170004A6088604FF000600449086070470000C2
:10218000001002400000FFF8FFFFF6FE08ED00E03F
:102190000000000000000000010203040607080917
:1021A0007047FEE7FEE7FEE7FEE7704770477047BF
:1021B00080B500F017F8BDE80140FEF7A5BF00E0CC
:1021C00000BF0548FEF7CEB9FBE70448FFF736B875
:1021D0000348FFF733B80000AC000020F0000020F7
:1021E0003001002002494A68087882184A60704726
:1021F0000000002019E050F8042BD30744BFA9F1D8
:1022000001039A18091F0023042942F8043BF9D25C
:102210005FEA817C134604D54FF0000CA2F800C0A1
:102220009B1CC90744BF0021197050F8041B0029EA
:10223000E1D1704710B450F8041B79B102684368CB
:1022400002440830DC0744BFA9F10104E31852F846
:10225000044B43F8044B091FF9D1ECE710BC70475D
:1022600010B5074979441831064C7C44163404E013
:102270000A68081D114488470146A142F8D110BDE3
:1022800008000000280000006DFFFFFF840100002F
:1022900010000020000000009DFFFFFF1000000064
:1022A00064000000000000200000000000F00DF8B5
:1022B000002801D0FFF7D4FFAFF300800020AFF378
:1022C0000080FEF769FB00F002F80120704700F083
:1022D00001B800000746384600F002F8FBE70000AE
:1022E00080B5AFF30080024A11001820ABBEFBE7B7
:1022F00026000200014880470148004745210008A8
:10230000152300080100000000000000100000007C
:1023100000A24A04AFF30080AFF30080FFF7C6FFCE
:10232000FFF7FEBFFFF7FEBFFFF7FEBFFFF7FEBFE1
:10233000FFF7FEBFFFF7FEBFFFF7FEBFFFF7FEBFD1
:10234000FFF7FEBFFFF7FEBFFFF7FEBFFFF7FEBFC1
:10235000FFF7FEBFFFF7FEBFFFF7FEBFFFF7FEBFB1
:10236000FFF7FEBFFFF7FEBFFFF7FEBFFFF7FEBFA1
:10237000FFF7FEBFFFF7FEBFFFF7FEBFFFF7FEBF91
:10238000FFF7FEBFFFF7FEBFFFF7FEBFFFF7FEBF81
:10239000FFF7FEBFFFF7FEBFFFF7FEBFFFF7FEBF71
:1023A000FFF7FEBFFFF7FEBFFFF7FEBFFFF7FEBF61
:1023B000FFF7FEBFFFF7FEBFFFF7FEBFFFF7FEBF51
:1023C000FFF7FEBFFFF7FEBFFFF7FEBFFFF7FEBF41
:1023D000FFF7FEBFFFF7FEBFFFF7FEBFFFF7FEBF31
:1023E000FFF7FEBFFFF7FEBFFFF7FEBFFFF7FEBF21
:0C23F000FFF7FEBFFFF7FEBFFFF7FEBFC8
:0400000508002315B7
:00000001FF
